:100000000C9445010C9476010C9476010C947601C5
:100010000C9476010C9476010C9476010C94760184
:100020000C9476010C9476010C9476010C94760174
:100030000C9476010C9476010C9476010C94760164
:100040000C9476010C9476010C9476010C94760154
:100050000C9476010C9476010C9476010C94D409DE
:100060000C9476010C9476010C9476010C94760134
:100070000C9476010C9476010C9476010C94760124
:100080000C9476010C9476010C9476010C94760114
:100090000C9476010C9476010C9476010C941E0A53
:1000A0000C9476010C9476010C9476010C947601F4
:1000B0000C9476010C9476010C9476010C947601E4
:1000C0000C9476010C9476010C9476010C947601D4
:1000D0000C9476010C9476010C9476010C947601C4
:1000E0000C9476010C94420B0C948E070C94F60140
:1000F0000C9423020C949D010C94FA010C94FD01C4
:100100000C9432070C945F070C9409070C941502A9
:100110000C9418070C949C010C941F020C945A0226
:100120000C94F2010C94EE010C9428020C948B02B6
:100130000C94E8010C9403020C9408070C94CB0275
:100140000C942D020C949B010C9411020C940D0242
:100150000C946D090C942B070C941B020C94D50481
:100160000C9429020C9407020000210024002700AF
:100170002A002D00300033000101000004010701B6
:100180000A0100002200250028002B002E0031006B
:10019000340002010000050108010B0100002000ED
:1001A0002300260029002C002F003200000100004F
:1001B00003010601090105050505070508080808EA
:1001C000020202020A0A08080404040401010101EF
:1001D00001010101030303030303030304070707EA
:1001E0000C0C0C0C0C0C0C0C02020202060606068F
:1001F000060606060B0B0B0B0B0B0B0B010210205C
:10020000200808102040102040800201020108044C
:1002100002010102040810204080804020100804E0
:100220000201800402018040201008040201080439
:10023000020101020408102040800102040810207D
:10024000408000000A0B02090C0D0E080703040190
:10025000000000000000000000000000000000009E
:10026000000000000000000000000000000012116B
:10027000100000000000000000000000000000006E
:100280000000000000000000420B11241FBECFEF51
:10029000D1E2DEBFCDBF00E00CBF24E0A0EFB2E0B2
:1002A00001C01D92A435B207E1F712E0A0E0B2E070
:1002B000ECEFF2E200E00BBF02C007900D92A03F0E
:1002C000B107D9F711E0C5E4D1E000E006C02197FD
:1002D0000109802FFE010E947411C434D10780E00F
:1002E0000807A9F70E94D00B0C947C110C94000015
:1002F00096E0899FD0011124A353BC4F90967C9324
:100300006E935F9791E091969C939197E0913A0458
:10031000F0913B0490913904992339F0309751F0D2
:10032000811108C08091E9031994309719F05C9607
:100330008C91FACF089508950895AF92BF92CF920D
:10034000DF92EF92FF920F931F93CF93DF936C0195
:100350007B018B01040F151FEB015E01AE18BF0876
:10036000C017D10759F06991D601ED91FC91019028
:10037000F081E02DC6011995892B79F7C501DF9130
:10038000CF911F910F91FF90EF90DF90CF90BF9092
:10039000AF9008958150823108F05AC0E82FF0E004
:1003A0008827EA52FE4F8F4F0C947411F601FA0120
:1003B000E801EE01F2012802FD01030207020D022D
:1003C000110215021B021F022802230229022D021C
:1003D000809180008F7780938000089580918000C5
:1003E0008F7DF9CF80918000877FF5CF84B58F779F
:1003F00084BD089584B58F7DFBCF8091B0008F7749
:100400008093B00008958091B0008F7DF9CF8091E6
:1004100090008F77809390000895809190008F7D59
:10042000F9CF80919000877FF5CF8091A0008F77E2
:100430008093A00008958091A0008F7DF9CF8091D6
:10044000A000877FF5CF809120018F7780932001D6
:100450000895809120018F7DF9CF80912001877FC1
:10046000F5CFCF93DF93282F30E0F901EE5BFD4FFE
:100470008491F901E450FE4FD491F901EA54FE4F02
:10048000C491CC23A1F081110E94CA01EC2FF0E0AD
:10049000EE0FFF1FE456FE4FA591B491EC91ED23B2
:1004A00081E090E009F480E0DF91CF91089580E051
:1004B00090E0FACF862F0C9431021F93CF93DF93F5
:1004C000282F30E0F901EE5BFD4F8491F901E450F3
:1004D000FE4FD491F901EA54FE4FC491CC23A9F008
:1004E000162F81110E94CA01EC2FF0E0EE0FFF1FC2
:1004F000EE57FE4FA591B4918FB7F894EC9111117E
:1005000008C0D095DE23DC938FBFDF91CF911F9180
:100510000895DE2BF8CF862F642F0C945D02CF93C5
:10052000DF9390E0FC01E450FE4F24918A549E4FEB
:10053000FC0184918823C9F090E0880F991FFC0189
:10054000E859FE4FA591B491FC01EE57FE4FC591BD
:10055000D49161110DC09FB7F8948C91209582239E
:100560008C938881282328839FBFDF91CF910895A2
:10057000623051F49FB7F8943C91822F8095832389
:100580008C93E8812E2BEFCF8FB7F894EC912E2B24
:100590002C938FBFEACF862F642F0C948F023FB726
:1005A000F8948091390390913A03A0913B03B09164
:1005B0003C0326B5A89B05C02F3F19F00196A11D4D
:1005C000B11D3FBFBA2FA92F982F8827BC01CD019D
:1005D000620F711D811D911D42E0660F771F881FFC
:1005E000991F4A95D1F708958F929F92AF92BF922B
:1005F000CF92DF92EF92FF924B015C010E94CF02FB
:100600006B017C010E94CF026C197D098E099F0944
:10061000683E734081059105A8F321E0821A910894
:10062000A108B10888EEC80E83E0D81EE11CF11CB9
:1006300081149104A104B10429F7FF90EF90DF9099
:10064000CF90BF90AF909F908F9008952FB7F89460
:100650006091350370913603809137039091380390
:100660002FBF08950F931F93CF93DF93C82FD62FDB
:1006700086E0C89FF0011124E353FC4F11A2878D3F
:1006800090A181309105F1F058F082309105F1F19F
:10069000039709F440C0DF91CF911F910F91089506
:1006A0006623C9F361E070E08C2F0E9478010E94FC
:1006B0002603609325047093260480932704909367
:1006C0002804E9CF0E9426030091250410912604F6
:1006D0002091270430912804AB01BC01401B510B31
:1006E000620B730B8091370490913804B0E0A0E066
:1006F00084179507A607B70748F462E070E08C2FCF
:10070000DF91CF911F910F910C94780163E070E01D
:10071000D111C1CFF4CF70E060E0F1CF6F927F9242
:100720008F929F92AF92BF92CF92DF92EF92FF9201
:100730000F931F93CF93DF9381E0809339040E943E
:1007400026030091290410912A0420912B04309152
:100750002C04AB01BC01401B510B620B730B80914D
:10076000350490913604B0E0A0E084179507A60701
:10077000B70708F014C1C0E080913304C81760F4D3
:10078000E0912F04F0913004EC0FF11D62E08081C4
:100790000E948F02CF5FF0CF712C812C912C5401DD
:1007A000839480913404781608F05FC0072D10E020
:1007B000E0913104F0913204E00FF11F61E080819B
:1007C0000E948F02E0913104F0913204E00FF11F9A
:1007D00060E080810E945D02D501C401072C04C045
:1007E000880F991FAA1FBB1F0A94D2F76C017C01C6
:1007F000E094F094612C809133046816F8F4C62DCF
:10080000D0E0E0912F04F0913004EC0FFD1F8081C7
:100810000E9431022496CC0FDD1FC353DC4F892B7D
:1008200041F4888199818C299D29998388836394D7
:10083000E2CF888199818E219F21F7CFE091310409
:10084000F0913204E00FF11F61E080810E945D02AF
:100850008091310490913204080F191F60E0F80173
:1008600080810E948F0273949CCFCDECD3E0FE0177
:100870008FEF9FEF278D30A1232B21F4148E968FBD
:10088000858F11A2369624E0E930F20799F7F12C12
:1008900096E0D92E80913304F81608F050C0E12C70
:1008A0000F2D10E0000F111F0B521C4F209134042C
:1008B000E21608F042C0F801608171810E2C02C07E
:1008C000769567950A94E2F7F29E900111242E0D19
:1008D000311DEDECF3E080E0458D568D2417350792
:1008E00009F461C08F5F36968A30B1F760FF23C08C
:1008F000EDECF3E090E080E0448D411117C0E09111
:100900002D04F0912E04E20FF31F4081D89EF001D8
:10091000D99EF00D1124E353FC4F448F368F258F61
:1009200010A2178E61E00E94320305C00196369630
:100930008A30910509F7E394B9CFF394ABCF10E077
:1009400089A18111182F2696F4E0C930DF07C1F77D
:100950000E9426036093290470932A0480932B0439
:1009600090932C041123D9F08091EE038823B9F0E1
:100970008091EC039091ED03019789F48091E90354
:10098000DF91CF911F910F91FF90EF90DF90CF906B
:10099000BF90AF909F908F907F906F90089510922E
:1009A000390480E0EDCF6170BECF0895FC019081E5
:1009B00090539A3008F090E0818180532AE0929F12
:1009C000800D1124089520911103260F3327331F22
:1009D00021323105ECF420919703FC0190E080E096
:1009E000243069F082E00895A09111032191AC01B7
:1009F0004F505D4FA40FB52FB11D2C930196861754
:100A000098F380911103680F6093110380E00895BB
:100A100081E008951092970381E0809396031092ED
:100A2000710361E084E10E945D0261E085E10E9462
:100A30005D02E9EBF0E080818E7F808380818D7F95
:100A4000808388E48093B80085E48093BC00089597
:100A5000CF93DF9391E09093F0028823B9F0C09197
:100A6000B800D091BA008091BC008A7B8093BC0012
:100A700060E084E10E945D0260E085E10E945D0229
:100A80000E940A05D093BA00C093B800DF91CF91BD
:100A900008958F929F92AF92BF92CF92DF92EF9282
:100AA000FF920F931F93CF93DF93D091C003D13266
:100AB00008F0D7C0182FC091BF030E94CF026B016E
:100AC0007C018091970381116BC082E08093970332
:100AD000109396038FEF8093950310929403D09315
:100AE0009303AFE9B3E0E3E7F3E080E0D81391C00C
:100AF0001092720380917203CC0FC82BC0937203C3
:100B000080917103813009F088C0109271030E94B6
:100B1000CF026B017C01809172038093BB008091B6
:100B2000990390919A03A0919B03B0919C03892B08
:100B30008A2B8B2BA1F00E94CF0200919903109178
:100B40009A0320919B0330919C036C197D098E09B7
:100B50009F09061717072807390708F442C0809134
:100B6000BC0083FDD8CF85EC8093BC000E94CF02EF
:100B70006B017C0180919703823009F450C0809111
:100B800095038F3F09F46FC080919503803209F47B
:100B90006CC080919503803309F469C084E026C05D
:100BA0008091990390919A03A0919B03B0919C032B
:100BB000892B8A2B8B2B09F484CF0E94CF02809043
:100BC000990390909A03A0909B03B0909C036C199A
:100BD0007D098E099F0986169706A806B90608F0B2
:100BE00070CF809198030E94280585E010929E03A3
:100BF0001092C00310929D03DF91CF911F910F912E
:100C0000FF90EF90DF90CF90BF90AF909F908F902C
:100C100008959D9191938F5F69CF85EEA5CF8091C7
:100C2000990390919A03A0919B03B0919C03892B07
:100C30008A2B8B2B09F49ECF0E94CF02009199033F
:100C400010919A0320919B0330919C036C197D09AC
:100C50008E099F09061717072807390708F08ACF5A
:100C6000C0CF81E0C3CF80E0C1CF82E0BFCF83E0BF
:100C7000BDCFCF92DF92EF92FF920F931F93CF934E
:100C8000DF93D82FC62F613208F098C00E94CF02A0
:100C90006B017C018091970381116BC081E080938F
:100CA0009703809396039FEF90939503109294037C
:100CB0009C0F909393038093720380917203DD0FD6
:100CC000D82BD093720380917103813009F078C0E2
:100CD000109271030E94CF026B017C01809172031C
:100CE0008093BB008091990390919A03A0919B03FC
:100CF000B0919C03892B8A2B8B2BA1F00E94CF02F1
:100D00000091990310919A0320919B0330919C03C9
:100D10006C197D098E099F090617170728073907DF
:100D200008F448C08091BC0083FDD8CF85EC809347
:100D3000BC000E94CF026B017C018091970381303F
:100D400009F440C0809194038C1710F4C09194036F
:100D5000E3E7F3E0A1E5B3E080E08C1355C08C2F0E
:100D6000DF91CF911F910F91FF90EF90DF90CF9087
:100D700008958091990390919A03A0919B03B0915B
:100D80009C03892B8A2B8B2B09F484CF0E94CF02E2
:100D90000091990310919A0320919B0330919C0339
:100DA0006C197D098E099F0906171707280739074F
:100DB00008F070CF809198030E942805C0E0CFCF43
:100DC00085EEB5CF8091990390919A03A0919B03F2
:100DD000B0919C03892B8A2B8B2B09F4AECF0E94F8
:100DE000CF020091990310919A0320919B033091B7
:100DF0009C036C197D098E099F09061717072807A0
:100E0000390708F09ACFD6CF91919D938F5FA5CFE8
:100E10000895E091420380914103E81730F4F0E037
:100E2000EF5AFC4F808190E008958FEF9FEF089577
:100E300090914203809141032FEF3FEF981748F4C0
:100E4000E92FF0E0EF5AFC4F208130E09F5F909354
:100E50004203C90108958091410390914203891B87
:100E6000990B0895CF92DF92EF92FF920F931F9309
:100E7000CF93DF937C01CB018A0120919D03222334
:100E800089F0EB016B01C40ED51ECC15DD0569F0B0
:100E90006991D701ED91FC910190F081E02DC7019E
:100EA0001995F3CF642F0E94E304C801DF91CF911D
:100EB0001F910F91FF90EF90DF90CF900895CF9307
:100EC000DF931F92CDB7DEB7698320919D03222364
:100ED000F9F02091C003203258F021E030E0FC010D
:100EE0003383228390E080E00F90DF91CF910895CB
:100EF00080919E03E82FF0E0E156FC4F99819083AA
:100F00008F5F80939E038093C00381E090E0ECCFDD
:100F100061E0CE0101960E94E304F7CF90E080E00B
:100F2000089584E20E943102019719F481E08093D0
:100F30004503089584E20E943102019721F4109242
:100F4000480310924703809147039091480301970B
:100F5000A1F461E086E10E945D0264EF71E080E04F
:100F600090E00E94F40260E086E10E945D0264EF7E
:100F700071E080E090E00C94F40208958F929F92CB
:100F8000AF92BF920F931F93CF93DF93CDB7DEB78E
:100F9000A1970FB6F894DEBF0FBECDBF19A24230A5
:100FA00008F44AE08E010F5D1F4F842E912CB12C66
:100FB000A12CA50194010E945211E62FB901CA018A
:100FC000EA3044F5E05DD801EE938D01232B242B0C
:100FD000252B79F790E080E0109769F0FD010190F2
:100FE0000020E9F73197AF014A1B5B0BBD018CE391
:100FF00094E00E949D01A1960FB6F894DEBF0FBE4B
:10100000CDBFDF91CF911F910F91BF90AF909F9077
:101010008F900895E95CD7CFFC0101900020E9F79B
:101020003197AF01481B590BBC018CE394E00C9441
:101030009D01CF93DF93EC0160E08E810E945D0201
:1010400061E08E810E945D0260E08E810E945D02FF
:101050008BE891E00197F1F7DF91CF910895CF925E
:10106000DF92EF92FF920F931F93CF93DF936C0168
:101070007C0187E0E80EF11CD0E0C0E0062F10E014
:10108000B8010C2E02C0759567950A94E2F761705D
:10109000F70181917F010E945D022196C430D10544
:1010A00079F7C601DF91CF911F910F91FF90EF90DB
:1010B000DF90CF900C941908CF92DF92EF92FF92BD
:1010C0000F931F93CF93DF93EC01F62E642F8C8147
:1010D0000E945D028D818F3F19F060E00E945D02E9
:1010E0000F2D10E08F8584FF25C06E0187E0C80EAC
:1010F000D11CF12CE12CB8010E2C02C0759567951E
:101100000A94E2F76170F60181916F010E945D021D
:10111000FFEFEF1AFF0A88E0E816F10461F7CE014D
:10112000DF91CF911F910F91FF90EF90DF90CF90C3
:101130000C941908B80184E0759567958A95E1F7D4
:10114000CE010E942F086F2DCE01DF91CF911F910C
:101150000F91FF90EF90DF90CF900C942F0840E01C
:10116000682F8CE394E00C945C0881E00E94AF0847
:101170008BE39FE10197F1F70895CF93DF938230DE
:1011800029F490914B04986090934B0480934F0402
:101190001092500480E48093510480E180935204C3
:1011A00080E58093530461E0809140040E948F02A7
:1011B000809141048F3F19F061E00E948F0261E04D
:1011C000809142040E948F02CCE3D4E09E012C5314
:1011D000344080914B0484FD0BC084E090E0219664
:1011E0002817390744F461E08E810E948F02EECF08
:1011F00088E090E0F4CF8BE39DE00197F1F760E0A9
:10120000809140040E945D0260E0809142040E944F
:101210005D02809141048F3F19F060E00E945D0201
:1012200080914B0484FD34C063E08CE394E00E9421
:101230002F08CBE4D6E4CE010197F1F763E08CE30D
:1012400094E00E942F082197F1F763E08CE394E08B
:101250000E942F0883E592E00197F1F762E08CE3AA
:1012600094E00E942F0880914B0480620E94AF0896
:1012700084E080934C048CE00E94AF080E94B50883
:1012800082E080934D0486E0DF91CF910C94AF080B
:1012900080620E94AF088BE496E40197F1F7809199
:1012A0004B0480620E94AF0883E592E00197F1F75A
:1012B00080914B0480620E94AF08D5CF90914F047B
:1012C000691710F06FEF690FE62FF0E0E45CFB4F59
:1012D0009489890F80680C94AF0841E00E945C08F3
:1012E00081E090E00895CF92DF92EF92FF926C013F
:1012F000990FEE08FF08F7FE16C041E06DE28CE39F
:1013000094E00E945C0866277727CB016C197D0961
:101310008E099F094AE00E94BE070196FF90EF9058
:10132000DF90CF9008954AE0C701B601FF90EF909B
:10133000DF90CF900C94BE0785ED8093BC00809128
:10134000990390919A03A0919B03B0919C030796F7
:10135000A11DB11D23E0B695A795979587952A9570
:10136000D1F72091BC0024FD03C01092970308958B
:101370004091990350919A0360919B0370919C0353
:10138000452B462B472B69F30097A105B10541F08A
:1013900025E32A95F1F700000197A109B109E1CFF2
:1013A000809198030C9428051F920F920FB60F920C
:1013B00011242F933F938F939F93AF93BF9380916B
:1013C000350390913603A0913703B09138033091E3
:1013D000340323E0230F2D3758F50196A11DB11DCD
:1013E000209334038093350390933603A0933703FF
:1013F000B09338038091390390913A03A0913B0355
:10140000B0913C030196A11DB11D809339039093C7
:101410003A03A0933B03B0933C03BF91AF919F91DC
:101420008F913F912F910F900FBE0F901F901895A5
:1014300026E8230F0296A11DB11DD2CF1F920F9255
:101440000FB60F9211240BB60F922F933F934F9329
:101450005F936F937F938F939F93AF93BF93EF931C
:10146000FF938091B900887F803609F44DC008F061
:1014700040C0883209F4A9C028F5803109F49DC024
:10148000C8F4882309F4FBC0883009F496C0FF91A2
:10149000EF91BF91AF919F918F917F916F915F91EC
:1014A0004F913F912F910F900BBE0F900FBE0F9059
:1014B0001F901895883109F488C0803241F78093D5
:1014C000950314C0803409F49DC040F48033B9F30F
:1014D0008833E9F68093950385ECB0C0803509F434
:1014E00085C0883509F496C0883489F60E949C0925
:1014F000CECF883909F48CC038F5883729F050F4FC
:10150000883611F0803719F683E0809397031092A4
:10151000330357C0883809F47BC0803919F080380C
:1015200009F0B5CF80913303803208F071C0E091AB
:10153000330381E08E0F809333038091BB00F0E092
:10154000ED5EFC4F80833DC0803B39F0E0F4803A93
:1015500009F479C0883A09F09ACF84E08093970320
:101560001092120310921103E0913F03F091400397
:1015700019958091110381110FC081E080931103AF
:101580001092F10209C0803C09F4A6CF883C09F40E
:10159000A3CF883B09F07BCFE091120381E08E0F4F
:1015A00080931203F0E0EF50FD4F80818093BB00E9
:1015B000909112038091110329C08091720380934E
:1015C000BB0085EC8093BC0062CF90919403809126
:1015D0009303981758F5E091940381E08E0F809360
:1015E0009403F0E0ED58FC4F8081E9CFE091940343
:1015F00081E08E0F809394038091BB00F0E0ED5862
:10160000FC4F808390919403809193039817C8F2C4
:1016100085E8D8CFE091940381E08E0F8093940306
:101620008091BB00F0E0ED58FC4F808380919603E1
:1016300081115CCF81E08093710384EA8093BC00C8
:101640001092970324CF85EC8093BC0010929703EF
:1016500080913303803230F4E0913303F0E0ED5EAB
:10166000FC4F10826091330370E0E0913D03F091F4
:101670003E0383E193E019951092330308CF109253
:10168000950334CF1092C4031092C30388EE93E005
:10169000A0E0B0E08093C5039093C603A093C70376
:1016A000B093C80389E192E09093C2038093C10391
:1016B00010923F0410923E0485E392E090933D0423
:1016C00080933C0480E3809340048FEF8093410437
:1016D00081E3809342048DE2809343048CE2809303
:1016E00044048BE2809345048AE28093460410927E
:1016F0004704109248041092490410924A04109230
:101700004B0481E00E94BD081092CF031092D303D6
:101710001092D2031092D4038BE292E09093CE0306
:101720008093CD03E9EEF3E01082148213821582D8
:10173000369684E0E532F807B9F785E092E09093B9
:10174000300480932F0482E092E0909332048093DF
:10175000310484E08093330483E08093340489E08F
:1017600092E090932E0480932D048AE090E0909371
:1017700036048093350484EF91E09093380480938D
:10178000370410923B0410923A04109229041092EC
:101790002A0410922B0410922C04109239040895FC
:1017A000CF93DF93CDB7DEB7A2970FB6F894DEBF25
:1017B0000FBECDBF789484B5826084BD84B581604E
:1017C00084BD85B5826085BD85B5816085BD80910C
:1017D0006E00816080936E00109281008091810084
:1017E000826080938100809181008160809381007C
:1017F000809180008160809380008091B10084603E
:101800008093B1008091B00081608093B00080919E
:10181000910082608093910080919100816080931B
:101820009100809190008160809390008091A10050
:1018300082608093A1008091A10081608093A100CB
:101840008091A00081608093A0008091210182603E
:1018500080932101809121018160809321018091F9
:10186000200181608093200180917A0084608093C0
:101870007A0080917A00826080937A0080917A0069
:10188000816080937A0080917A00806880937A00EA
:101890001092C100109242031092410310929E03D5
:1018A0001092C0030E940A058BE991E090934003D7
:1018B00080933F038CE991E090933E0380933D0336
:1018C00081EC93E09093500380934F030E940A05AC
:1018D000DD24D394D0929D0308E60093BF0381E0FA
:1018E0000E94490582E00E94BD0861E086E10E94F5
:1018F0008F0260E082E20E948F0260E083E20E9439
:101900008F0260E084E20E948F0261E08FE20E9419
:101910008F0260E08FE20E945D0260E080E00E9442
:101920005E098DE392E00E940C0861E080E00E9475
:101930005E098EE492E00E940C0860ED77E080E0A2
:1019400090E00E94F4020E94B50880914F039091AC
:101950005003D0929D030093BF0310929E031092F8
:10196000C003DC01ED91FC910190F081E02D60E07D
:10197000199581E00E94490561E088E60E943906D8
:10198000109242038093410380914F039091500342
:10199000DC01ED91FC910284F385E02D199587FF20
:1019A000B2C088E692E00E94D604182F83E692E047
:1019B0000E94D604F82E8BE692E00E94D604E82E10
:1019C0008EE692E00E94D604C82E81E792E00E9443
:1019D000D604B82E80914F0390915003D0929D036E
:1019E0000093BF0310929E031092C003DC01ED919F
:1019F000FC910190F081E02D60E01995A0914F03DA
:101A0000B09150030AE08B2D602F0E944611682F81
:101A1000660F680F660F6B0DED91FC9111970190A9
:101A2000F081E02DCD011995A0914F03B0915003A5
:101A30008C2D602F0E944611682F660F680F660F6D
:101A40006C0DED91FC9111970190F081E02DCD018D
:101A50001995A0914F03B09150038E2D602F0E94D5
:101A60004611682F660F680F660F6E0DED91FC91A1
:101A700011970190F081E02DCD01199580914F03D0
:101A800090915003DC01ED91FC910190F081E02DEB
:101A900060E01995A0914F03B09150038F2D602FF6
:101AA0000E944611682F660F680F660F6F0DED914B
:101AB000FC9111970190F081E02DCD011995809155
:101AC0004F0390915003DC01ED91FC910190F08166
:101AD000E02D60E11995A0914F03B0915003812F43
:101AE000602F0E944611682F660F680F660F610F06
:101AF000ED91FC9111970190F081E02DCD011995A8
:101B000081E00E944905FAE05F2EA0E06A2EA0E085
:101B10007A2EB7EEAB2EB3E0BB2E88248394912CA3
:101B200080914F0390915003B1E0B0939D03E8E69C
:101B3000E093BF0310929E031092C003DC01ED916D
:101B4000FC910190F081E02D60E0199581E00E9408
:101B5000490567E088E60E943906109242038093A7
:101B6000410380914F0390915003DC01ED91FC9172
:101B70000284F385E02D19958F77282F30E094E0CB
:101B8000359527959A95E1F7922F990F990F022F86
:101B9000091B000F080F80914F0390915003DC0147
:101BA000ED91FC910284F385E02D19959C0144E0B0
:101BB000359527954A95E1F72F703327922F990F86
:101BC000990F122F191B110F180F80914F0390912D
:101BD0005003DC01ED91FC910284F385E02D199511
:101BE0009C0154E0359527955A95E1F72F703327DE
:101BF000922F990F990F222E291A220C280E8091CC
:101C00004F0390915003DC01ED91FC910284F38528
:101C1000E02D199580914F0390915003DC01ED91D7
:101C2000FC910284F385E02D19959C0164E03595C3
:101C300027956A95E1F72F703327922F990F990F07
:101C4000422E491A440C480E80914F039091500344
:101C5000DC01ED91FC910284F385E02D19959C0146
:101C600074E0359527957A95E1F72F703327922FF9
:101C7000990F990F322E391A330C380E80914F0379
:101C800090915003DC01ED91FC910284F385E02DED
:101C900019959C01E4E035952795EA95E1F72F70B9
:101CA0003327922F990F990F291B220FD22ED80E6E
:101CB0000E94B50860E080E00E945E0984E792E03F
:101CC0000E940C0860E087E00E945E09E22CF12C83
:101CD000F0924E03E0924D03B9E0B21540F08CE76C
:101CE00092E00E940C08F0924E03E0924D03C7016F
:101CF0000E9473098AEB92E00E940C08E12EF12CFD
:101D0000F0924C03E0924B031A3040F48CE792E0DF
:101D10000E940C08F0924C03E0924B03C7010E9412
:101D200073098AEB92E00E940C0810E010934A03BA
:101D3000009349030A30110544F48CE792E00E94B5
:101D40000C0810934A0300934903C8010E947309C9
:101D500061E080E00E945E098EE792E00E940C083C
:101D6000642D70E090E080E04AE00E94BE0786E8C3
:101D700092E00E940C08632D70E090E080E04AE061
:101D80000E94BE0786E892E00E940C086D2D70E06C
:101D90006053784F90E080E04AE00E94BE077E01E9
:101DA000E7E1EE0EF11C0BE010E0C8010E943011DB
:101DB00090E0D7018D939D937D010F5F1F4F0131FF
:101DC000110599F72F89388D80914D0390914E031D
:101DD0002817390759F5298D3A8D80914B03909139
:101DE0004C032817390711F5809147039091480358
:101DF0000197E1F4EBE0F0E0F0930102E0930002E0
:101E00000E949A070E949A070E94B50888E892E00B
:101E10000E940C0861E080E00E945E098AE992E07D
:101E20000E940C080E949A070E949A0768EC70E0D2
:101E300080E090E00E94F40283E20E943102019768
:101E400009F09AC00E94B50864EF71E080E090E06C
:101E50000E94F4020E94B50860E081E00E945E09E1
:101E60008CEA92E00E940C0880914503811148C0E1
:101E7000109246030E948E03809346030E949107AE
:101E800061E082E00E945E098091430390914403E7
:101E90000E94730980914603811105C0809145031A
:101EA000882341F3E1CF8332F9F28A32E9F240919B
:101EB000430350914403549E9001559E300D1124CC
:101EC000082E000C990BC097820F931F9093440328
:101ED00080934303883E93403CF2B0924403A09227
:101EE0004303C2CF80914303909144030197181696
:101EF0001906CCF590934403809343030E94B508E0
:101F00008091430390914403181619069CF560E0F4
:101F100081E00E945E098CEB92E00E940C0861E077
:101F200086E00E945E098BEC92E00E940C0861E062
:101F300082E00E945E0980914303909144030E94D5
:101F400073090E9426036B017C010E9426036C1911
:101F50007D098E099F09683E73408105910514F63D
:101F60000E949107F2CF1092440310924303109203
:101F70004503C4CF0E94B50882E20E943102019756
:101F800009F067C10E94B50864EF71E080E090E05D
:101F90000E94F40261E080E00E945E0980914D039E
:101FA00090914E030E9473098AEB92E00E940C0804
:101FB00080914B0390914C030E9473098AEB92E04D
:101FC0000E940C088091490390914A030E94730972
:101FD00010924803109247030E94B50860E080E029
:101FE0000E945E098DEC92E00E940C0861E080E0A6
:101FF0000E945E0980914D0390914E030A9724F44C
:102000008CE792E00E940C0880914D0390914E0362
:102010000E9473098AEB92E00E940C0880914B03A6
:1020200090914C030E9473098AEB92E00E940C0885
:102030008091490390914A030E94730968EC70E013
:1020400080E090E00E94F40261E080E00E945E097E
:102050008CE592E00E940C088AEB92E00E940C084A
:1020600080914B0390914C030E9473098AEB92E09C
:102070000E940C088091490390914A030E947309C1
:1020800068EC70E080E090E00E94F4020E948E0311
:10209000809346039FEC980F993098F440914B033E
:1020A00050914C03549E9001559E300D1124082EE2
:1020B000000C990BC097820F931F90934E0380934F
:1020C0004D0384E20E943102019709F081CF6091B3
:1020D0004D0380910002909101029C012F5F3F4FC0
:1020E00030930102209300020E94381164EF71E0E6
:1020F00080E090E00E94F40284E20E9431020197A5
:10210000D9F361E080E00E945E0980914D039091D7
:102110004E030E9473098AEB92E00E940C088091A2
:102120004B0390914C030A9724F48CE792E00E94B1
:102130000C0880914B0390914C030E9473098AEB29
:1021400092E00E940C088091490390914A030E94FA
:1021500073098CE592E00E940C0868EC70E080E066
:1021600090E00E94F40261E080E00E945E098091AC
:102170004D0390914E030E9473098AEB92E00E94F6
:102180000C088CE592E00E940C088AEB92E00E9419
:102190000C088091490390914A030E9473098CE5D1
:1021A00092E00E940C0868EC70E080E090E00E94F1
:1021B000F4020E948E03809346039FEC980F99309F
:1021C00040F4082E000C990BC09790934C03809319
:1021D0004B0384E20E943102019709F092CF609193
:1021E0004B0380910002909101029C012F5F3F4FB1
:1021F00030930102209300020E94381164EF71E0D5
:1022000080E090E00E94F40284E20E943102019793
:10221000D9F390924803809247036AE070E080E02F
:1022200090E00E94F40268EE73E080E090E00E948B
:10223000F4020E94B50860E080E00E945E098FED24
:1022400092E00E940C0860ED77E080E090E00E9450
:10225000F4026114710409F463CC0E94000060CCA4
:10226000F999FECF92BD81BDF89A992780B508955E
:10227000262FF999FECF1FBA92BD81BD20BD0FB6A2
:10228000F894FA9AF99A0FBE01960895991B79E08D
:1022900004C0991F961708F0961B881F7A95C9F7F6
:1022A00080950895A1E21A2EAA1BBB1BFD010DC04B
:1022B000AA1FBB1FEE1FFF1FA217B307E407F507F6
:1022C00020F0A21BB30BE40BF50B661F771F881FD2
:1022D000991F1A9469F760957095809590959B0168
:1022E000AC01BD01CF010895EE0FFF1F881F8BBF0A
:0C22F0000790F691E02D1994F894FFCFB0
:1022FC000B001918171A1B1C1D31323334353637A5
:10230C0038392A3023000000005F0732078E070897
:10231C00072B071807090700000000CB028B025A95
:10232C0002000000006D099D018E07D5044D4F443D
:10233C00554C4F20525443445331333037002020F6
:10234C0052656C6F6A20416C61726D612020004F88
:10235C00637420323820323032310031313A31312D
:10236C003A3432005469656D706F3A00300046653E
:10237C006368613A20002F00616C61726D612E2ED2
:10238C002E2E2E2E2E2E2E2E2E002E2E2E2E2E2E8F
:10239C002E2E2E2E2E616C61726D6100494E4752AD
:1023AC00455345205449454D504F3A005345472E0F
:1023BC002052455354414E544553007300436F6EA5
:1023CC0066696775726120416C61726D61200041B4
:1023DC006C61726D6120456E63656E646964610049
:00000001FF
