:020000040000FA
:100000000C9445010C9476010C9476010C947601C5
:100010000C9476010C9476010C9476010C94760184
:100020000C9476010C9476010C9476010C94760174
:100030000C9476010C9476010C9476010C94760164
:100040000C9476010C9476010C9476010C94760154
:100050000C9476010C9476010C9476010C94D409DE
:100060000C9476010C9476010C9476010C94760134
:100070000C9476010C9476010C9476010C94760124
:100080000C9476010C9476010C9476010C94760114
:100090000C9476010C9476010C9476010C941E0A53
:1000A0000C9476010C9476010C9476010C947601F4
:1000B0000C9476010C9476010C9476010C947601E4
:1000C0000C9476010C9476010C9476010C947601D4
:1000D0000C9476010C9476010C9476010C947601C4
:1000E0000C9476010C94420B0C948E070C94F60140
:1000F0000C9423020C949D010C94FA010C94FD01C4
:100100000C9432070C945F070C9409070C941502A9
:100110000C9418070C949C010C941F020C945A0226
:100120000C94F2010C94EE010C9428020C948B02B6
:100130000C94E8010C9403020C9408070C94CB0275
:100140000C942D020C949B010C9411020C940D0242
:100150000C946D090C942B070C941B020C94D50481
:100160000C9429020C9407020000210024002700AF
:100170002A002D00300033000101000004010701B6
:100180000A0100002200250028002B002E0031006B
:10019000340002010000050108010B0100002000ED
:1001A0002300260029002C002F003200000100004F
:1001B00003010601090105050505070508080808EA
:1001C000020202020A0A08080404040401010101EF
:1001D00001010101030303030303030304070707EA
:1001E0000C0C0C0C0C0C0C0C02020202060606068F
:1001F000060606060B0B0B0B0B0B0B0B010210205C
:10020000200808102040102040800201020108044C
:1002100002010102040810204080804020100804E0
:100220000201800402018040201008040201080439
:10023000020101020408102040800102040810207D
:10024000408000000A0B02090C0D0E080703040190
:10025000000000000000000000000000000000009E
:10026000000000000000000000000000000012116B
:10027000100000000000000000000000000000006E
:100280000000000000000000420B11241FBECFEF51
:10029000D1E2DEBFCDBF00E00CBF24E0A0EFB2E0B2
:1002A00001C01D92A435B207E1F712E0A0E0B2E070
:1002B000ECEFF2E200E00BBF02C007900D92A03F0E
:1002C000B107D9F711E0C5E4D1E000E006C02197FD
:1002D0000109802FFE010E947411C434D10780E00F
:1002E0000807A9F70E94D00B0C947C110C94000015
:1002F00096E0899FD0011124A353BC4F90967C9324
:100300006E935F9791E091969C939197E0913A0458
:10031000F0913B0490913904992339F0309751F0D2
:10032000811108C08091E9031994309719F05C9607
:100330008C91FACF089508950895AF92BF92CF920D
:10034000DF92EF92FF920F931F93CF93DF936C0195
:100350007B018B01040F151FEB015E01AE18BF0876
:10036000C017D10759F06991D601ED91FC91019028
:10037000F081E02DC6011995892B79F7C501DF9130
:10038000CF911F910F91FF90EF90DF90CF90BF9092
:10039000AF9008958150823108F05AC0E82FF0E004
:1003A0008827EA52FE4F8F4F0C947411F601FA0120
:1003B000E801EE01F2012802FD01030207020D022D
:1003C000110215021B021F022802230229022D021C
:1003D000809180008F7780938000089580918000C5
:1003E0008F7DF9CF80918000877FF5CF84B58F779F
:1003F00084BD089584B58F7DFBCF8091B0008F7749
:100400008093B00008958091B0008F7DF9CF8091E6
:1004100090008F77809390000895809190008F7D59
:10042000F9CF80919000877FF5CF8091A0008F77E2
:100430008093A00008958091A0008F7DF9CF8091D6
:10044000A000877FF5CF809120018F7780932001D6
:100450000895809120018F7DF9CF80912001877FC1
:10046000F5CFCF93DF93282F30E0F901EE5BFD4FFE
:100470008491F901E450FE4FD491F901EA54FE4F02
:10048000C491CC23A1F081110E94CA01EC2FF0E0AD
:10049000EE0FFF1FE456FE4FA591B491EC91ED23B2
:1004A00081E090E009F480E0DF91CF91089580E051
:1004B00090E0FACF862F0C9431021F93CF93DF93F5
:1004C000282F30E0F901EE5BFD4F8491F901E450F3
:1004D000FE4FD491F901EA54FE4FC491CC23A9F008
:1004E000162F81110E94CA01EC2FF0E0EE0FFF1FC2
:1004F000EE57FE4FA591B4918FB7F894EC9111117E
:1005000008C0D095DE23DC938FBFDF91CF911F9180
:100510000895DE2BF8CF862F642F0C945D02CF93C5
:10052000DF9390E0FC01E450FE4F24918A549E4FEB
:10053000FC0184918823C9F090E0880F991FFC0189
:10054000E859FE4FA591B491FC01EE57FE4FC591BD
:10055000D49161110DC09FB7F8948C91209582239E
:100560008C938881282328839FBFDF91CF910895A2
:10057000623051F49FB7F8943C91822F8095832389
:100580008C93E8812E2BEFCF8FB7F894EC912E2B24
:100590002C938FBFEACF862F642F0C948F023FB726
:1005A000F8948091390390913A03A0913B03B09164
:1005B0003C0326B5A89B05C02F3F19F00196A11D4D
:1005C000B11D3FBFBA2FA92F982F8827BC01CD019D
:1005D000620F711D811D911D42E0660F771F881FFC
:1005E000991F4A95D1F708958F929F92AF92BF922B
:1005F000CF92DF92EF92FF924B015C010E94CF02FB
:100600006B017C010E94CF026C197D098E099F0944
:10061000683E734081059105A8F321E0821A910894
:10062000A108B10888EEC80E83E0D81EE11CF11CB9
:1006300081149104A104B10429F7FF90EF90DF9099
:10064000CF90BF90AF909F908F9008952FB7F89460
:100650006091350370913603809137039091380390
:100660002FBF08950F931F93CF93DF93C82FD62FDB
:1006700086E0C89FF0011124E353FC4F11A2878D3F
:1006800090A181309105F1F058F082309105F1F19F
:10069000039709F440C0DF91CF911F910F91089506
:1006A0006623C9F361E070E08C2F0E9478010E94FC
:1006B0002603609325047093260480932704909367
:1006C0002804E9CF0E9426030091250410912604F6
:1006D0002091270430912804AB01BC01401B510B31
:1006E000620B730B8091370490913804B0E0A0E066
:1006F00084179507A607B70748F462E070E08C2FCF
:10070000DF91CF911F910F910C94780163E070E01D
:10071000D111C1CFF4CF70E060E0F1CF6F927F9242
:100720008F929F92AF92BF92CF92DF92EF92FF9201
:100730000F931F93CF93DF9381E0809339040E943E
:1007400026030091290410912A0420912B04309152
:100750002C04AB01BC01401B510B620B730B80914D
:10076000350490913604B0E0A0E084179507A60701
:10077000B70708F014C1C0E080913304C81760F4D3
:10078000E0912F04F0913004EC0FF11D62E08081C4
:100790000E948F02CF5FF0CF712C812C912C5401DD
:1007A000839480913404781608F05FC0072D10E020
:1007B000E0913104F0913204E00FF11F61E080819B
:1007C0000E948F02E0913104F0913204E00FF11F9A
:1007D00060E080810E945D02D501C401072C04C045
:1007E000880F991FAA1FBB1F0A94D2F76C017C01C6
:1007F000E094F094612C809133046816F8F4C62DCF
:10080000D0E0E0912F04F0913004EC0FFD1F8081C7
:100810000E9431022496CC0FDD1FC353DC4F892B7D
:1008200041F4888199818C299D29998388836394D7
:10083000E2CF888199818E219F21F7CFE091310409
:10084000F0913204E00FF11F61E080810E945D02AF
:100850008091310490913204080F191F60E0F80173
:1008600080810E948F0273949CCFCDECD3E0FE0177
:100870008FEF9FEF278D30A1232B21F4148E968FBD
:10088000858F11A2369624E0E930F20799F7F12C12
:1008900096E0D92E80913304F81608F050C0E12C70
:1008A0000F2D10E0000F111F0B521C4F209134042C
:1008B000E21608F042C0F801608171810E2C02C07E
:1008C000769567950A94E2F7F29E900111242E0D19
:1008D000311DEDECF3E080E0458D568D2417350792
:1008E00009F461C08F5F36968A30B1F760FF23C08C
:1008F000EDECF3E090E080E0448D411117C0E09111
:100900002D04F0912E04E20FF31F4081D89EF001D8
:10091000D99EF00D1124E353FC4F448F368F258F61
:1009200010A2178E61E00E94320305C00196369630
:100930008A30910509F7E394B9CFF394ABCF10E077
:1009400089A18111182F2696F4E0C930DF07C1F77D
:100950000E9426036093290470932A0480932B0439
:1009600090932C041123D9F08091EE038823B9F0E1
:100970008091EC039091ED03019789F48091E90354
:10098000DF91CF911F910F91FF90EF90DF90CF906B
:10099000BF90AF909F908F907F906F90089510922E
:1009A000390480E0EDCF6170BECF0895FC019081E5
:1009B00090539A3008F090E0818180532AE0929F12
:1009C000800D1124089520911103260F3327331F22
:1009D00021323105ECF420919703FC0190E080E096
:1009E000243069F082E00895A09111032191AC01B7
:1009F0004F505D4FA40FB52FB11D2C930196861754
:100A000098F380911103680F6093110380E00895BB
:100A100081E008951092970381E0809396031092ED
:100A2000710361E084E10E945D0261E085E10E9462
:100A30005D02E9EBF0E080818E7F808380818D7F95
:100A4000808388E48093B80085E48093BC00089597
:100A5000CF93DF9391E09093F0028823B9F0C09197
:100A6000B800D091BA008091BC008A7B8093BC0012
:100A700060E084E10E945D0260E085E10E945D0229
:100A80000E940A05D093BA00C093B800DF91CF91BD
:100A900008958F929F92AF92BF92CF92DF92EF9282
:100AA000FF920F931F93CF93DF93D091C003D13266
:100AB00008F0D7C0182FC091BF030E94CF026B016E
:100AC0007C018091970381116BC082E08093970332
:100AD000109396038FEF8093950310929403D09315
:100AE0009303AFE9B3E0E3E7F3E080E0D81391C00C
:100AF0001092720380917203CC0FC82BC0937203C3
:100B000080917103813009F088C0109271030E94B6
:100B1000CF026B017C01809172038093BB008091B6
:100B2000990390919A03A0919B03B0919C03892B08
:100B30008A2B8B2BA1F00E94CF0200919903109178
:100B40009A0320919B0330919C036C197D098E09B7
:100B50009F09061717072807390708F442C0809134
:100B6000BC0083FDD8CF85EC8093BC000E94CF02EF
:100B70006B017C0180919703823009F450C0809111
:100B800095038F3F09F46FC080919503803209F47B
:100B90006CC080919503803309F469C084E026C05D
:100BA0008091990390919A03A0919B03B0919C032B
:100BB000892B8A2B8B2B09F484CF0E94CF02809043
:100BC000990390909A03A0909B03B0909C036C199A
:100BD0007D098E099F0986169706A806B90608F0B2
:100BE00070CF809198030E94280585E010929E03A3
:100BF0001092C00310929D03DF91CF911F910F912E
:100C0000FF90EF90DF90CF90BF90AF909F908F902C
:100C100008959D9191938F5F69CF85EEA5CF8091C7
:100C2000990390919A03A0919B03B0919C03892B07
:100C30008A2B8B2B09F49ECF0E94CF02009199033F
:100C400010919A0320919B0330919C036C197D09AC
:100C50008E099F09061717072807390708F08ACF5A
:100C6000C0CF81E0C3CF80E0C1CF82E0BFCF83E0BF
:100C7000BDCFCF92DF92EF92FF920F931F93CF934E
:100C8000DF93D82FC62F613208F098C00E94CF02A0
:100C90006B017C018091970381116BC081E080938F
:100CA0009703809396039FEF90939503109294037C
:100CB0009C0F909393038093720380917203DD0FD6
:100CC000D82BD093720380917103813009F078C0E2
:100CD000109271030E94CF026B017C01809172031C
:100CE0008093BB008091990390919A03A0919B03FC
:100CF000B0919C03892B8A2B8B2BA1F00E94CF02F1
:100D00000091990310919A0320919B0330919C03C9
:100D10006C197D098E099F090617170728073907DF
:100D200008F448C08091BC0083FDD8CF85EC809347
:100D3000BC000E94CF026B017C018091970381303F
:100D400009F440C0809194038C1710F4C09194036F
:100D5000E3E7F3E0A1E5B3E080E08C1355C08C2F0E
:100D6000DF91CF911F910F91FF90EF90DF90CF9087
:100D700008958091990390919A03A0919B03B0915B
:100D80009C03892B8A2B8B2B09F484CF0E94CF02E2
:100D90000091990310919A0320919B0330919C0339
:100DA0006C197D098E099F0906171707280739074F
:100DB00008F070CF809198030E942805C0E0CFCF43
:100DC00085EEB5CF8091990390919A03A0919B03F2
:100DD000B0919C03892B8A2B8B2B09F4AECF0E94F8
:100DE000CF020091990310919A0320919B033091B7
:100DF0009C036C197D098E099F09061717072807A0
:100E0000390708F09ACFD6CF91919D938F5FA5CFE8
:100E10000895E091420380914103E81730F4F0E037
:100E2000EF5AFC4F808190E008958FEF9FEF089577
:100E300090914203809141032FEF3FEF981748F4C0
:100E4000E92FF0E0EF5AFC4F208130E09F5F909354
:100E50004203C90108958091410390914203891B87
:100E6000990B0895CF92DF92EF92FF920F931F9309
:100E7000CF93DF937C01CB018A0120919D03222334
:100E800089F0EB016B01C40ED51ECC15DD0569F0B0
:100E90006991D701ED91FC910190F081E02DC7019E
:100EA0001995F3CF642F0E94E304C801DF91CF911D
:100EB0001F910F91FF90EF90DF90CF900895CF9307
:100EC000DF931F92CDB7DEB7698320919D03222364
:100ED000F9F02091C003203258F021E030E0FC010D
:100EE0003383228390E080E00F90DF91CF910895CB
:100EF00080919E03E82FF0E0E156FC4F99819083AA
:100F00008F5F80939E038093C00381E090E0ECCFDD
:100F100061E0CE0101960E94E304F7CF90E080E00B
:100F2000089584E20E943102019719F481E08093D0
:100F30004503089584E20E943102019721F4109242
:100F4000480310924703809147039091480301970B
:100F5000A1F461E086E10E945D0264EF71E080E04F
:100F600090E00E94F40260E086E10E945D0264EF7E
:100F700071E080E090E00C94F40208958F929F92CB
:100F8000AF92BF920F931F93CF93DF93CDB7DEB78E
:100F9000A1970FB6F894DEBF0FBECDBF19A24230A5
:100FA00008F44AE08E010F5D1F4F842E912CB12C66
:100FB000A12CA50194010E945211E62FB901CA018A
:100FC000EA3044F5E05DD801EE938D01232B242B0C
:100FD000252B79F790E080E0109769F0FD010190F2
:100FE0000020E9F73197AF014A1B5B0BBD018CE391
:100FF00094E00E949D01A1960FB6F894DEBF0FBE4B
:10100000CDBFDF91CF911F910F91BF90AF909F9077
:101010008F900895E95CD7CFFC0101900020E9F79B
:101020003197AF01481B590BBC018CE394E00C9441
:101030009D01CF93DF93EC0160E08E810E945D0201
:1010400061E08E810E945D0260E08E810E945D02FF
:101050008BE891E00197F1F7DF91CF910895CF925E
:10106000DF92EF92FF920F931F93CF93DF936C0168
:101070007C0187E0E80EF11CD0E0C0E0062F10E014
:10108000B8010C2E02C0759567950A94E2F761705D
:10109000F70181917F010E945D022196C430D10544
:1010A00079F7C601DF91CF911F910F91FF90EF90DB
:1010B000DF90CF900C941908CF92DF92EF92FF92BD
:1010C0000F931F93CF93DF93EC01F62E642F8C8147
:1010D0000E945D028D818F3F19F060E00E945D02E9
:1010E0000F2D10E08F8584FF25C06E0187E0C80EAC
:1010F000D11CF12CE12CB8010E2C02C0759567951E
:101100000A94E2F76170F60181916F010E945D021D
:10111000FFEFEF1AFF0A88E0E816F10461F7CE014D
:10112000DF91CF911F910F91FF90EF90DF90CF90C3
:101130000C941908B80184E0759567958A95E1F7D4
:10114000CE010E942F086F2DCE01DF91CF911F910C
:101150000F91FF90EF90DF90CF900C942F0840E01C
:10116000682F8CE394E00C945C0881E00E94AF0847
:101170008BE39FE10197F1F70895CF93DF938230DE
:1011800029F490914B04986090934B0480934F0402
:101190001092500480E48093510480E180935204C3
:1011A00080E58093530461E0809140040E948F02A7
:1011B000809141048F3F19F061E00E948F0261E04D
:1011C000809142040E948F02CCE3D4E09E012C5314
:1011D000344080914B0484FD0BC084E090E0219664
:1011E0002817390744F461E08E810E948F02EECF08
:1011F00088E090E0F4CF8BE39DE00197F1F760E0A9
:10120000809140040E945D0260E0809142040E944F
:101210005D02809141048F3F19F060E00E945D0201
:1012200080914B0484FD34C063E08CE394E00E9421
:101230002F08CBE4D6E4CE010197F1F763E08CE30D
:1012400094E00E942F082197F1F763E08CE394E08B
:101250000E942F0883E592E00197F1F762E08CE3AA
:1012600094E00E942F0880914B0480620E94AF0896
:1012700084E080934C048CE00E94AF080E94B50883
:1012800082E080934D0486E0DF91CF910C94AF080B
:1012900080620E94AF088BE496E40197F1F7809199
:1012A0004B0480620E94AF0883E592E00197F1F75A
:1012B00080914B0480620E94AF08D5CF90914F047B
:1012C000691710F06FEF690FE62FF0E0E45CFB4F59
:1012D0009489890F80680C94AF0841E00E945C08F3
:1012E00081E090E00895CF92DF92EF92FF926C013F
:1012F000990FEE08FF08F7FE16C041E06DE28CE39F
:1013000094E00E945C0866277727CB016C197D0961
:101310008E099F094AE00E94BE070196FF90EF9058
:10132000DF90CF9008954AE0C701B601FF90EF909B
:10133000DF90CF900C94BE0785ED8093BC00809128
:10134000990390919A03A0919B03B0919C030796F7
:10135000A11DB11D23E0B695A795979587952A9570
:10136000D1F72091BC0024FD03C01092970308958B
:101370004091990350919A0360919B0370919C0353
:10138000452B462B472B69F30097A105B10541F08A
:1013900025E32A95F1F700000197A109B109E1CFF2
:1013A000809198030C9428051F920F920FB60F920C
:1013B00011242F933F938F939F93AF93BF9380916B
:1013C000350390913603A0913703B09138033091E3
:1013D000340323E0230F2D3758F50196A11DB11DCD
:1013E000209334038093350390933603A0933703FF
:1013F000B09338038091390390913A03A0913B0355
:10140000B0913C030196A11DB11D809339039093C7
:101410003A03A0933B03B0933C03BF91AF919F91DC
:101420008F913F912F910F900FBE0F901F901895A5
:1014300026E8230F0296A11DB11DD2CF1F920F9255
:101440000FB60F9211240BB60F922F933F934F9329
:101450005F936F937F938F939F93AF93BF93EF931C
:10146000FF938091B900887F803609F44DC008F061
:1014700040C0883209F4A9C028F5803109F49DC024
:10148000C8F4882309F4FBC0883009F496C0FF91A2
:10149000EF91BF91AF919F918F917F916F915F91EC
:1014A0004F913F912F910F900BBE0F900FBE0F9059
:1014B0001F901895883109F488C0803241F78093D5
:1014C000950314C0803409F49DC040F48033B9F30F
:1014D0008833E9F68093950385ECB0C0803509F434
:1014E00085C0883509F496C0883489F60E949C0925
:1014F000CECF883909F48CC038F5883729F050F4FC
:10150000883611F0803719F683E0809397031092A4
:10151000330357C0883809F47BC0803919F080380C
:1015200009F0B5CF80913303803208F071C0E091AB
:10153000330381E08E0F809333038091BB00F0E092
:10154000ED5EFC4F80833DC0803B39F0E0F4803A93
:1015500009F479C0883A09F09ACF84E08093970320
:101560001092120310921103E0913F03F091400397
:1015700019958091110381110FC081E080931103AF
:101580001092F10209C0803C09F4A6CF883C09F40E
:10159000A3CF883B09F07BCFE091120381E08E0F4F
:1015A00080931203F0E0EF50FD4F80818093BB00E9
:1015B000909112038091110329C08091720380934E
:1015C000BB0085EC8093BC0062CF90919403809126
:1015D0009303981758F5E091940381E08E0F809360
:1015E0009403F0E0ED58FC4F8081E9CFE091940343
:1015F00081E08E0F809394038091BB00F0E0ED5862
:10160000FC4F808390919403809193039817C8F2C4
:1016100085E8D8CFE091940381E08E0F8093940306
:101620008091BB00F0E0ED58FC4F808380919603E1
:1016300081115CCF81E08093710384EA8093BC00C8
:101640001092970324CF85EC8093BC0010929703EF
:1016500080913303803230F4E0913303F0E0ED5EAB
:10166000FC4F10826091330370E0E0913D03F091F4
:101670003E0383E193E019951092330308CF109253
:10168000950334CF1092C4031092C30388EE93E005
:10169000A0E0B0E08093C5039093C603A093C70376
:1016A000B093C80389E192E09093C2038093C10391
:1016B00010923F0410923E0485E392E090933D0423
:1016C00080933C0480E3809340048FEF8093410437
:1016D00081E3809342048DE2809343048CE2809303
:1016E00044048BE2809345048AE28093460410927E
:1016F0004704109248041092490410924A04109230
:101700004B0481E00E94BD081092CF031092D303D6
:101710001092D2031092D4038BE292E09093CE0306
:101720008093CD03E9EEF3E01082148213821582D8
:10173000369684E0E532F807B9F785E092E09093B9
:10174000300480932F0482E092E0909332048093DF
:10175000310484E08093330483E08093340489E08F
:1017600092E090932E0480932D048AE090E0909371
:1017700036048093350484EF91E09093380480938D
:10178000370410923B0410923A04109229041092EC
:101790002A0410922B0410922C04109239040895FC
:1017A000CF93DF93CDB7DEB7A2970FB6F894DEBF25
:1017B0000FBECDBF789484B5826084BD84B581604E
:1017C00084BD85B5826085BD85B5816085BD80910C
:1017D0006E00816080936E00109281008091810084
:1017E000826080938100809181008160809381007C
:1017F000809180008160809380008091B10084603E
:101800008093B1008091B00081608093B00080919E
:10181000910082608093910080919100816080931B
:101820009100809190008160809390008091A10050
:1018300082608093A1008091A10081608093A100CB
:101840008091A00081608093A0008091210182603E
:1018500080932101809121018160809321018091F9
:10186000200181608093200180917A0084608093C0
:101870007A0080917A00826080937A0080917A0069
:10188000816080937A0080917A00806880937A00EA
:101890001092C100109242031092410310929E03D5
:1018A0001092C0030E940A058BE991E090934003D7
:1018B00080933F038CE991E090933E0380933D0336
:1018C00081EC93E09093500380934F030E940A05AC
:1018D000DD24D394D0929D0308E60093BF0381E0FA
:1018E0000E94490582E00E94BD0861E086E10E94F5
:1018F0008F0260E082E20E948F0260E083E20E9439
:101900008F0260E084E20E948F0261E08FE20E9419
:101910008F0260E08FE20E945D0260E080E00E9442
:101920005E098DE392E00E940C0861E080E00E9475
:101930005E098EE492E00E940C0860ED77E080E0A2
:1019400090E00E94F4020E94B50880914F039091AC
:101950005003D0929D030093BF0310929E031092F8
:10196000C003DC01ED91FC910190F081E02D60E07D
:10197000199581E00E94490561E088E60E943906D8
:10198000109242038093410380914F039091500342
:10199000DC01ED91FC910284F385E02D199587FF20
:1019A000B2C088E692E00E94D604182F83E692E047
:1019B0000E94D604F82E8BE692E00E94D604E82E10
:1019C0008EE692E00E94D604C82E81E792E00E9443
:1019D000D604B82E80914F0390915003D0929D036E
:1019E0000093BF0310929E031092C003DC01ED919F
:1019F000FC910190F081E02D60E01995A0914F03DA
:101A0000B09150030AE08B2D602F0E944611682F81
:101A1000660F680F660F6B0DED91FC9111970190A9
:101A2000F081E02DCD011995A0914F03B0915003A5
:101A30008C2D602F0E944611682F660F680F660F6D
:101A40006C0DED91FC9111970190F081E02DCD018D
:101A50001995A0914F03B09150038E2D602F0E94D5
:101A60004611682F660F680F660F6E0DED91FC91A1
:101A700011970190F081E02DCD01199580914F03D0
:101A800090915003DC01ED91FC910190F081E02DEB
:101A900060E01995A0914F03B09150038F2D602FF6
:101AA0000E944611682F660F680F660F6F0DED914B
:101AB000FC9111970190F081E02DCD011995809155
:101AC0004F0390915003DC01ED91FC910190F08166
:101AD000E02D60E11995A0914F03B0915003812F43
:101AE000602F0E944611682F660F680F660F610F06
:101AF000ED91FC9111970190F081E02DCD011995A8
:101B000081E00E944905FAE05F2EA0E06A2EA0E085
:101B10007A2EB7EEAB2EB3E0BB2E88248394912CA3
:101B200080914F0390915003B1E0B0939D03E8E69C
:101B3000E093BF0310929E031092C003DC01ED916D
:101B4000FC910190F081E02D60E0199581E00E9408
:101B5000490567E088E60E943906109242038093A7
:101B6000410380914F0390915003DC01ED91FC9172
:101B70000284F385E02D19958F77282F30E094E0CB
:101B8000359527959A95E1F7922F990F990F022F86
:101B9000091B000F080F80914F0390915003DC0147
:101BA000ED91FC910284F385E02D19959C0144E0B0
:101BB000359527954A95E1F72F703327922F990F86
:101BC000990F122F191B110F180F80914F0390912D
:101BD0005003DC01ED91FC910284F385E02D199511
:101BE0009C0154E0359527955A95E1F72F703327DE
:101BF000922F990F990F222E291A220C280E8091CC
:101C00004F0390915003DC01ED91FC910284F38528
:101C1000E02D199580914F0390915003DC01ED91D7
:101C2000FC910284F385E02D19959C0164E03595C3
:101C300027956A95E1F72F703327922F990F990F07
:101C4000422E491A440C480E80914F039091500344
:101C5000DC01ED91FC910284F385E02D19959C0146
:101C600074E0359527957A95E1F72F703327922FF9
:101C7000990F990F322E391A330C380E80914F0379
:101C800090915003DC01ED91FC910284F385E02DED
:101C900019959C01E4E035952795EA95E1F72F70B9
:101CA0003327922F990F990F291B220FD22ED80E6E
:101CB0000E94B50860E080E00E945E0984E792E03F
:101CC0000E940C0860E087E00E945E09E22CF12C83
:101CD000F0924E03E0924D03B9E0B21540F08CE76C
:101CE00092E00E940C08F0924E03E0924D03C7016F
:101CF0000E9473098AEB92E00E940C08E12EF12CFD
:101D0000F0924C03E0924B031A3040F48CE792E0DF
:101D10000E940C08F0924C03E0924B03C7010E9412
:101D200073098AEB92E00E940C0810E010934A03BA
:101D3000009349030A30110544F48CE792E00E94B5
:101D40000C0810934A0300934903C8010E947309C9
:101D500061E080E00E945E098EE792E00E940C083C
:101D6000642D70E090E080E04AE00E94BE0786E8C3
:101D700092E00E940C08632D70E090E080E04AE061
:101D80000E94BE0786E892E00E940C086D2D70E06C
:101D90006053784F90E080E04AE00E94BE077E01E9
:101DA000E7E1EE0EF11C0BE010E0C8010E943011DB
:101DB00090E0D7018D939D937D010F5F1F4F0131FF
:101DC000110599F72F89388D80914D0390914E031D
:101DD0002817390759F5298D3A8D80914B03909139
:101DE0004C032817390711F5809147039091480358
:101DF0000197E1F4EBE0F0E0F0930102E0930002E0
:101E00000E949A070E949A070E94B50888E892E00B
:101E10000E940C0861E080E00E945E098AE992E07D
:101E20000E940C080E949A070E949A0768EC70E0D2
:101E300080E090E00E94F40283E20E943102019768
:101E400009F09AC00E94B50864EF71E080E090E06C
:101E50000E94F4020E94B50860E081E00E945E09E1
:101E60008CEA92E00E940C0880914503811148C0E1
:101E7000109246030E948E03809346030E949107AE
:101E800061E082E00E945E098091430390914403E7
:101E90000E94730980914603811105C0809145031A
:101EA000882341F3E1CF8332F9F28A32E9F240919B
:101EB000430350914403549E9001559E300D1124CC
:101EC000082E000C990BC097820F931F9093440328
:101ED00080934303883E93403CF2B0924403A09227
:101EE0004303C2CF80914303909144030197181696
:101EF0001906CCF590934403809343030E94B508E0
:101F00008091430390914403181619069CF560E0F4
:101F100081E00E945E098CEB92E00E940C0861E077
:101F200086E00E945E098BEC92E00E940C0861E062
:101F300082E00E945E0980914303909144030E94D5
:101F400073090E9426036B017C010E9426036C1911
:101F50007D098E099F09683E73408105910514F63D
:101F60000E949107F2CF1092440310924303109203
:101F70004503C4CF0E94B50882E20E943102019756
:101F800009F067C10E94B50864EF71E080E090E05D
:101F90000E94F40261E080E00E945E0980914D039E
:101FA00090914E030E9473098AEB92E00E940C0804
:101FB00080914B0390914C030E9473098AEB92E04D
:101FC0000E940C088091490390914A030E94730972
:101FD00010924803109247030E94B50860E080E029
:101FE0000E945E098DEC92E00E940C0861E080E0A6
:101FF0000E945E0980914D0390914E030A9724F44C
:102000008CE792E00E940C0880914D0390914E0362
:102010000E9473098AEB92E00E940C0880914B03A6
:1020200090914C030E9473098AEB92E00E940C0885
:102030008091490390914A030E94730968EC70E013
:1020400080E090E00E94F40261E080E00E945E097E
:102050008CE592E00E940C088AEB92E00E940C084A
:1020600080914B0390914C030E9473098AEB92E09C
:102070000E940C088091490390914A030E947309C1
:1020800068EC70E080E090E00E94F4020E948E0311
:10209000809346039FEC980F993098F440914B033E
:1020A00050914C03549E9001559E300D1124082EE2
:1020B000000C990BC097820F931F90934E0380934F
:1020C0004D0384E20E943102019709F081CF6091B3
:1020D0004D0380910002909101029C012F5F3F4FC0
:1020E00030930102209300020E94381164EF71E0E6
:1020F00080E090E00E94F40284E20E9431020197A5
:10210000D9F361E080E00E945E0980914D039091D7
:102110004E030E9473098AEB92E00E940C088091A2
:102120004B0390914C030A9724F48CE792E00E94B1
:102130000C0880914B0390914C030E9473098AEB29
:1021400092E00E940C088091490390914A030E94FA
:1021500073098CE592E00E940C0868EC70E080E066
:1021600090E00E94F40261E080E00E945E098091AC
:102170004D0390914E030E9473098AEB92E00E94F6
:102180000C088CE592E00E940C088AEB92E00E9419
:102190000C088091490390914A030E9473098CE5D1
:1021A00092E00E940C0868EC70E080E090E00E94F1
:1021B000F4020E948E03809346039FEC980F99309F
:1021C00040F4082E000C990BC09790934C03809319
:1021D0004B0384E20E943102019709F092CF609193
:1021E0004B0380910002909101029C012F5F3F4FB1
:1021F00030930102209300020E94381164EF71E0D5
:1022000080E090E00E94F40284E20E943102019793
:10221000D9F390924803809247036AE070E080E02F
:1022200090E00E94F40268EE73E080E090E00E948B
:10223000F4020E94B50860E080E00E945E098FED24
:1022400092E00E940C0860ED77E080E090E00E9450
:10225000F4026114710409F463CC0E94000060CCA4
:10226000F999FECF92BD81BDF89A992780B508955E
:10227000262FF999FECF1FBA92BD81BD20BD0FB6A2
:10228000F894FA9AF99A0FBE01960895991B79E08D
:1022900004C0991F961708F0961B881F7A95C9F7F6
:1022A00080950895A1E21A2EAA1BBB1BFD010DC04B
:1022B000AA1FBB1FEE1FFF1FA217B307E407F507F6
:1022C00020F0A21BB30BE40BF50B661F771F881FD2
:1022D000991F1A9469F760957095809590959B0168
:1022E000AC01BD01CF010895EE0FFF1F881F8BBF0A
:1022F0000790F691E02D1994F894FFCF0B00191870
:10230000171A1B1C1D3132333435363738392A3011
:1023100023000000005F0732078E0708072B07180D
:1023200007090700000000CB028B025A02000000E0
:10233000006D099D018E07D5044D4F44554C4F202B
:1023400052544344533133303700202052656C6F70
:102350006A20416C61726D612020004F63742032ED
:102360003820323032310031313A31313A343200B2
:102370005469656D706F3A00300046656368613A74
:1023800020002F00616C61726D612E2E2E2E2E2E7C
:102390002E2E2E2E2E002E2E2E2E2E2E2E2E2E2E8B
:1023A0002E616C61726D6100494E47524553452064
:1023B0005449454D504F3A005345472E20524553FE
:1023C00054414E544553007300436F6E6669677500
:1023D000726120416C61726D612000416C61726DAF
:0C23E0006120456E63656E6469646100F5
:020000040003F7
:10E000000D9489F10D94B2F10D94B2F10D94B2F129
:10E010000D94B2F10D94B2F10D94B2F10D94B2F1F0
:10E020000D94B2F10D94B2F10D94B2F10D94B2F1E0
:10E030000D94B2F10D94B2F10D94B2F10D94B2F1D0
:10E040000D94B2F10D94B2F10D94B2F10D94B2F1C0
:10E050000D94B2F10D94B2F10D94B2F10D94B2F1B0
:10E060000D94B2F10D94B2F10D94B2F10D94B2F1A0
:10E070000D94B2F10D94B2F10D94B2F10D94B2F190
:10E080000D94B2F10D94B2F10D94B2F10D94B2F180
:10E090000D94B2F10D94B2F10D94B2F10D94B2F170
:10E0A0000D94B2F10D94B2F10D94B2F10D94B2F160
:10E0B0000D94B2F10D94B2F10D94B2F10D94B2F150
:10E0C0000D94B2F10D94B2F10D94B2F10D94B2F140
:10E0D0000D94B2F10D94B2F10D94B2F10D94B2F130
:10E0E0000D94B2F141546D656761323536300041AF
:10E0F000726475696E6F206578706C6F72657220DE
:10E1000073746B3530305632206279204D4C530099
:10E11000426F6F746C6F616465723E004875683F52
:10E1200000436F6D70696C6564206F6E203D200048
:10E130004350552054797065202020203D20005FF9
:10E140005F4156525F415243485F5F3D2000415658
:10E1500052204C696243205665723D20004743437C
:10E160002056657273696F6E203D20004350552024
:10E1700049442020202020203D20004C6F7720663D
:10E18000757365202020203D20004869676820665F
:10E190007573652020203D200045787420667573D6
:10E1A00065202020203D20004C6F636B2066757336
:10E1B000652020203D20004D617220203720323024
:10E1C000313300312E362E3800342E332E350056A2
:10E1D00023202020414444522020206F7020636F70
:10E1E00064652020202020696E73747275637469E1
:10E1F0006F6E2061646472202020496E74657272B3
:10E20000757074006E6F20766563746F7200726A49
:10E210006D702020006A6D70200057686174207056
:10E220006F72743A00506F7274206E6F7420737541
:10E2300070706F72746564004D7573742062652030
:10E2400061206C6574746572002000577269747483
:10E25000696E672045450052656164696E672045B7
:10E26000450045452065727220636E743D00504F35
:10E27000525400303D5A65726F2061646472003FF1
:10E280003D43505520737461747300403D454550C3
:10E29000524F4D207465737400423D426C696E6B41
:10E2A000204C454400453D44756D70204545505215
:10E2B0004F4D00463D44756D7020464C415348001B
:10E2C000483D48656C70004C3D4C69737420492F83
:10E2D0004F20506F72747300513D51756974005234
:10E2E0003D44756D702052414D00563D73686F7707
:10E2F00020696E7465727275707420566563746FF0
:10E30000727300593D506F727420626C696E6B00BD
:10E310002A0011241FBECFEFD1E2DEBFCDBF01E046
:10E320000CBF12E0A0E0B2E0EEE1FDEF03E00BBFB6
:10E3300002C007900D92A030B107D9F712E0A0E01B
:10E34000B2E001C01D92AE30B107E1F70F9460F367
:10E350000D948DFE01E20EBF0FEF0DBF11241FBE05
:10E360000D9460F30D9400F020E030E040ED57E0B4
:10E3700005C0FA013197F1F72F5F3F4F2817390792
:10E38000C0F308959C01260F311DC901A0E0B0E043
:10E390002F5F3F4FABBFFC018791882361F08093D3
:10E3A000C6008091C00086FFFCCF8091C0008064D1
:10E3B0008093C000EACF08958DE08093C6008091DD
:10E3C000C00086FFFCCF8091C00080648093C000B5
:10E3D0008AE08093C6008091C00086FFFCCF8091C8
:10E3E000C00080648093C00008950F94C2F10F9420
:10E3F000DCF10895FC019081992359F09093C600B7
:10E400008091C00086FFFCCF8091C0008064809323
:10E41000C0003196992379F70895282F982F929567
:10E420009F70892F805D8A3308F0895F8093C600D2
:10E430008091C00086FFFCCF8091C00080648093F3
:10E44000C000822F8F70982F905D9A3308F0995FEB
:10E450009093C6008091C00086FFFCCF8091C000E1
:10E4600080648093C00008959C01FB01853691056E
:10E470001CF46330710594F0C90164E670E00F94F8
:10E480002EFE605D7F4F6093C6008091C00086FFC6
:10E49000FCCF8091C00080648093C0002B30310598
:10E4A00014F43297B4F0C90164E670E00F942EFEC4
:10E4B0006AE070E00F942EFE605D7F4F6093C600AF
:10E4C0008091C00086FFFCCF8091C0008064809363
:10E4D000C000C9016AE070E00F942EFEC0968093E0
:10E4E000C6008091C00086FFFCCF8091C000806490
:10E4F0008093C00008951F93182F8EE692EE60E07F
:10E500000F94C2F11093C6008091C00086FFFCCF2B
:10E510008091C00080648093C0000F94DCF11F9153
:10E5200008952F923F924F925F926F927F928F92B7
:10E530009F92AF92BF92CF92DF92EF92FF920F9392
:10E540001F93DF93CF93CDB7DEB762970FB6F894E2
:10E55000DEBF0FBECDBF382E622ECA01DB015C01CB
:10E560006D01772420E2222E2E010894411C511CBB
:10E570008BC081E0A81680E0B80681E0C80680E084
:10E58000D80628F0C601AA27BB270F940DF2BB2797
:10E59000AD2D9C2D8B2D0F940DF28A2D0F940DF225
:10E5A0002092C6008091C00086FFFCCF8091C00001
:10E5B00080648093C0009DE29093C6008091C0006B
:10E5C00086FFFCCF8091C00080648093C0002092C1
:10E5D000C6008091C00086FFFCCF8091C00080649F
:10E5E0008093C00019828601750188249924A1E0D6
:10E5F0003A1651F03A1620F0B2E03B1661F409C029
:10E600000BBFF701779007C0C7010F9477FE782EF4
:10E6100002C0F7017080872D0F940DF22092C60082
:10E620008091C00086FFFCCF8091C0008064809301
:10E63000C000872D8052F401EF70F0708F3520F408
:10E64000E40DF51D708204C0E40DF51D8EE280839B
:10E650000894E11CF11C011D111D0894811C911CE2
:10E6600090E18916910409F0C2CF80E190E0A0E02A
:10E67000B0E0A80EB91ECA1EDB1E198AC2010F9493
:10E68000FAF10F94DCF16A94662009F072CF629679
:10E690000FB6F894DEBF0FBECDBFCF91DF911F91B3
:10E6A0000F91FF90EF90DF90CF90BF90AF909F9031
:10E6B0008F907F906F905F904F903F902F90089534
:10E6C0002F923F924F925F926F927F928F929F9282
:10E6D000AF92BF92CF92DF92EF92FF920F931F9370
:10E6E000DF93CF93CDB7DEB7CD53D1400FB6F894BB
:10E6F000DEBF0FBECDBF01E20EBF0FEF0DBF94B75F
:10E70000F894A89514BE80916000886180936000A1
:10E7100010926000789493FF05C0E0910002F091A0
:10E7200001021995279A2F9A8091C00082608093E8
:10E73000C00080E18093C40088E18093C1000000A4
:10E74000EE24FF24870144E0A42EB12CCC24DD2448
:10E7500024C0C5010197F1F70894E11CF11C011DCB
:10E76000111D21E2E2162EE4F20620E0020720E06D
:10E77000120718F031E0C32ED12CC801B70127ECE5
:10E780003BE140E050E00F9441FE611571058105C9
:10E79000910519F485B1805885B98091C00087FD35
:10E7A00003C0C114D104A9F2A6014F5F5F4FC25E3E
:10E7B000DE4F59834883CE51D140C25EDE4F8881FF
:10E7C0009981CE51D140019711F00D9410FEC05D9A
:10E7D000DE4F19821882C053D14060E0C15DDE4F28
:10E7E0001882CF52D14088249924C35DDE4F19820C
:10E7F0001882CD52D140C05EDE4F188219821A8233
:10E800001B82C052D140CE5CDE4F188219821A8220
:10E810001B82C253D140EE24FF2487010BBFF701B6
:10E8200007911691C45CDE4F19830883CC53D14005
:10E830000D940BFEC25EDE4F28813981CE51D1404E
:10E840002130310509F52091C600C25EDE4F1982E4
:10E850001882CE51D14022C02F5F3F4F4F4F5F4FA4
:10E86000213082E138078AE7480780E0580780F0C6
:10E87000C45CDE4FE881F981CC53D140EF5FFF4F9C
:10E8800019F0EE27FF27099420E030E040E050E047
:10E890008091C00087FFE0CF2091C600C35DDE4FAE
:10E8A00048815981CD52D1404F5F5F4FC35DDE4FEC
:10E8B00059834883CD52D140213209F063C64A3092
:10E8C000510508F05FC60894811C911C53E0851621
:10E8D000910409F059C600E010E018C081E280936D
:10E8E000C6008091C00086FFFCCF8091C00080648C
:10E8F0008093C0002F5F3F4F2931310579F70F9486
:10E90000DCF10F5F1F4F0530110519F020E030E0FA
:10E91000E5CF10920A0210920B0210920C02109294
:10E920000D02109206021092070210920802109235
:10E930000902109202021092030210920402109235
:10E9400005028FEE90EE60E00F94F5F180E191EE1C
:10E9500060E00F94C2F18091C00087FFFCCF9091DE
:10E96000C600903608F09F759032B8F09093C600BC
:10E970008091C00086FFFCCF8091C00080648093AE
:10E98000C000A0E2A093C6008091C00086FFFCCF2B
:10E990008091C00080648093C000983409F4D7C18E
:10E9A0009934B8F4923409F459C1933458F490333B
:10E9B00019F1903308F4E3C59F33A1F1903409F0C5
:10E9C000DEC5BDC0953409F470C1963409F0D7C5D1
:10E9D00098C1923509F42BC2933538F49C3409F46C
:10E9E000F5C1913509F0CBC518C2963509F445C279
:10E9F000993509F0C4C567C483E792EE62E00F94CD
:10EA0000F5F110920602109207021092080210927D
:10EA1000090210920A0210920B0210920C0210923C
:10EA20000D0213C18FE792EE62E00F94F5F18FEEC5
:10EA300090EE60E00F94F5F181E291EE60E00F94CA
:10EA4000C2F187EB91EE60E00F94F5F180E391EE77
:10EA500060E00F94C2F184EE90EE60E00F94F5F167
:10EA60008FE391EE60E00F94C2F186E090E061E008
:10EA700070E00F9434F20F94DCF18DE591EE60E0DC
:10EA80000F94C2F189EC91EE60E00F94F5F18EE401
:10EA900091EE60E00F94C2F183EC91EE60E00F9490
:10EAA000F5F18CE691EE60E00F94C2F18EE10F94E7
:10EAB0000DF288E90F940DF281E00F940DF20F949E
:10EAC000DCF18BE791EE60E00F94C2F119E0E0E039
:10EAD000F0E010935700E4918E2F0F940DF20F94F5
:10EAE000DCF18AE891EE60E00F94C2F1E3E0F0E03F
:10EAF00010935700E4918E2F0F940DF20F94DCF1D8
:10EB000089E991EE60E00F94C2F1E2E0F0E0109349
:10EB10005700E4918E2F0F940DF20F94DCF188EAE8
:10EB200091EE60E00F94C2F1E1E0F0E01093570045
:10EB30001491812F0F940DF20F94DCF107CF8BE825
:10EB400092EE62E00F94F5F18BE492EE60E00F94A8
:10EB5000F5F10F94DCF100E010E019C0C8016F2D51
:10EB60000F947FFEFF2031F489E492EE60E00F9471
:10EB7000C2F10BC0F092C6008091C00086FFFCCFAE
:10EB80008091C00080648093C0000F5F1F4FC80158
:10EB900081519F41A0E0B0E0ABBFFC01F790BAE229
:10EBA000FB1621F0E2E000301E07C1F60F94DCF105
:10EBB0000F94DCF187E592EE60E00F94F5F10F948D
:10EBC000DCF1CC24DD2400E010E01EC0C8010F946D
:10EBD00077FEF82E882331F489E492EE60E00F94FA
:10EBE000C2F10BC08093C6008091C00086FFFCCFAD
:10EBF0008091C00080648093C000FE1419F00894D6
:10EC0000C11CD11C0F5F1F4FC80181519F41A0E063
:10EC1000B0E0ABBFFC01E790FAE2EF1621F022E092
:10EC20000030120799F60F94DCF10F94DCF182E6C4
:10EC300092EE60E00F94C2F1C60161E070E00F94C3
:10EC400034F20F94DCF10F94DCF110920202109276
:10EC50000302109204021092050278CE89E992EE26
:10EC600062E00F94F5F1279A2F9A16C02F9880E052
:10EC700090E0E0EDF7E03197F1F7019684369105E9
:10EC8000C1F72F9A80E090E0E0EDF7E03197F1F7DF
:10EC9000019684369105C1F78091C00087FFE6CFC9
:10ECA0008091C00087FFFCCF64C485EA92EE62E0E9
:10ECB0000F94F5F140910202509103026091040219
:10ECC0007091050281E020E10F9491F2809102029F
:10ECD00090910302A0910402B091050280509F4FD1
:10ECE000AF4FBF4F8093020290930302A0930402A0
:10ECF000B093050280509041A040B04008F426CE69
:10ED0000A4CF83EB92EE62E00F94F5F140910602FE
:10ED100050910702609108027091090280E020E1A1
:10ED20000F9491F28091060290910702A09108023F
:10ED3000B091090280509F4FAF4FBF4F80930602A2
:10ED400090930702A0930802B0930902FFCD80ECD4
:10ED500092EE62E00F94F5F183E792EE60E00F949B
:10ED6000F5F18FE792EE60E00F94F5F18BE892EE0B
:10ED700060E00F94F5F189E992EE60E00F94F5F10F
:10ED800085EA92EE60E00F94F5F183EB92EE60E09D
:10ED90000F94F5F180EC92EE60E00F94F5F187ECC2
:10EDA00092EE60E00F94F5F188ED92EE60E00F9442
:10EDB000F5F18FED92EE60E00F94F5F18AEE92EEB0
:10EDC00060E00F94F5F183E093EEBDCD87EC92EE19
:10EDD00062E00F94F5F181E40F947BF282E40F94EA
:10EDE0007BF283E40F947BF284E40F947BF285E45E
:10EDF0000F947BF286E40F947BF287E40F947BF20E
:10EE000088E40F947BF28AE40F947BF28BE40F94F6
:10EE10007BF28CE40F947BF299CD88ED92EE62E068
:10EE20000F94F5F1772473948824992409C48FED05
:10EE300092EE62E00F94F5F140910A0250910B02BC
:10EE400060910C0270910D0282E020E10F9491F22A
:10EE500080910A0290910B02A0910C02B0910D02D8
:10EE600080509F4FAF4FBF4F80930A0290930B0289
:10EE7000A0930C02B0930D0269CD8AEE92EE62E08F
:10EE80000F94F5F184EE90EE60E00F94F5F18FECC5
:10EE900091EE60E00F94F5F1662477244301CC5D98
:10EEA000DE4F19821882C452D140D401C301B695F5
:10EEB000A79597958795CA5DDE4F88839983AA8326
:10EEC000BB83C652D140CC5DDE4FA881B981C4520C
:10EED000D1401196CC5DDE4FB983A883C452D14096
:10EEE000CD0162E070E00F9434F2B0E2B093C6005E
:10EEF0008091C00086FFFCCF8091C0008064809329
:10EF0000C000EDE2E093C6008091C00086FFFCCF18
:10EF10008091C00080648093C000F0E2F093C6004E
:10EF20008091C00086FFFCCF8091C00080648093F8
:10EF3000C000CA5DDE4FE880F9800A811B81C6529D
:10EF4000D140BB27A12F902F8F2D0F940DF2CA5DBA
:10EF5000DE4F8881C652D1400F940DF2B0E2FB2EF5
:10EF6000F092C6008091C00086FFFCCF8091C00067
:10EF700080648093C0000DE30093C6008091C000C0
:10EF800086FFFCCF8091C00080648093C00010E2B7
:10EF90001093C6008091C00086FFFCCF8091C00016
:10EFA00080648093C0008BBEF3012791C65DDE4F65
:10EFB0002883CA52D140A22EBB24CC24DD2408943D
:10EFC000611C711C811C911C8BBEF3018791282E42
:10EFD0003324442455240894611C711C811C911C09
:10EFE0008BBEF3013791C55DDE4F3883CB52D140E4
:10EFF0000894611C711C811C911C8BBEF30147910C
:10F00000C45DDE4F4883CC52D140ADEFEA2EAFEF66
:10F01000FA2EAFEF0A2FAFEF1A2F6E0C7F1C801E57
:10F02000911E142D032DF22CEE24EA0CFB1C0C1D5A
:10F030001D1D0F940DF220E22093C6008091C000A8
:10F0400086FFFCCF8091C00080648093C000C65DC5
:10F05000DE4F8881CA52D1400F940DF230E23093D6
:10F06000C6008091C00086FFFCCF8091C000806404
:10F070008093C000C45DDE4F8881CC52D1400F9494
:10F080000DF240E24093C6008091C00086FFFCCFA5
:10F090008091C00080648093C000C55DDE4F888190
:10F0A000CB52D1400F940DF250E25093C6008091A4
:10F0B000C00086FFFCCF8091C00080648093C000B8
:10F0C0008FEFE8168FEFF80680E0080780E018075A
:10F0D00031F484E092EE60E00F94C2F1DFC0D80119
:10F0E000C7018070907CA070B0708050904CA040A0
:10F0F000B040D1F52FEF3FE340E050E0E222F322B1
:10F1000004231523CA5DDE4FA880B980CA80DB8046
:10F11000C652D140AE0CBF1CC01ED11EAA0CBB1CD7
:10F12000CC1CDD1C8EE092EE60E00F94C2F1BB2798
:10F13000A12F902F8F2D0F940DF28E2D0F940DF285
:10F1400030E23093C6008091C00086FFFCCF8091F2
:10F15000C00080648093C0004EE34093C60080915D
:10F16000C00086FFFCCF87C08EE09EEFA0E0B0E03D
:10F17000E822F9220A231B239CE0E91694E9F90608
:10F1800090E0090790E0190709F088C0C45DDE4FE0
:10F19000A881CC52D140EA2EFF2400E010E0102FCD
:10F1A0000F2DFE2CEE24C55DDE4FB881CB52D14031
:10F1B000EB0EF11C011D111DD601C501817090706F
:10F1C000A070B070DC0199278827E80EF91E0A1F8D
:10F1D0001B1F20EF30E040E050E0A222B322C42207
:10F1E000D52241E1AA0CBB1CCC1CDD1C4A95D1F7F1
:10F1F000EA0CFB1C0C1D1D1D81E090E0A0E0B0E0BE
:10F20000282239224A225B2235E1220C331C441C7D
:10F21000551C3A95D1F7E20CF31C041D151D57013E
:10F220006801AA0CBB1CCC1CDD1C85E192EE60E0E1
:10F230000F94C2F1C801AA27BB270F940DF2BB2778
:10F24000A12F902F8F2D0F940DF28E2D0F940DF274
:10F2500090E29093C6008091C00086FFFCCF809121
:10F26000C00080648093C000AEE3A093C60080918C
:10F27000C00086FFFCCF8091C00080648093C000F6
:10F28000C601AA27BB270F940DF2BB27AD2D9C2DDD
:10F290008B2D0F940DF28A2D0F940DF20F94DCF14B
:10F2A000CC5DDE4FE881F981C452D140F99709F471
:10F2B0004DCBF4E0EF2EF12C012D112D6E0C7F1CA7
:10F2C000801E911EF2CD83E093EE62E00F94F5F183
:10F2D0008AE192EE60E00F94C2F18091C00087FF56
:10F2E000FCCF1091C6001F751093C6008091C0001E
:10F2F00086FFFCCF8091C00080648093C0000F9493
:10F30000DCF1812F81548A3108F036C1163409F4BA
:10F3100095C0173490F4133409F44EC0143430F40B
:10F320001134F1F0123409F01DC130C0143409F465
:10F3300059C0153409F016C16BC01A3409F4C4C0A1
:10F340001B3438F4173409F48FC0183409F00AC19B
:10F35000A1C01B3409F4D2C01C3409F003C1E8C0B9
:10F360008FEF81B90DC082B1809582B980E090E0C5
:10F37000E0EDF7E03197F1F70196883C9105C1F790
:10F380008091C00087FFEFCF12B8EFC08FEF84B934
:10F390000DC085B1809585B980E090E0E0EDF7E0A3
:10F3A0003197F1F70196883C9105C1F78091C00033
:10F3B00087FFEFCF15B8D9C08FEF87B90DC088B1DF
:10F3C000809588B980E090E0E0EDF7E03197F1F7C3
:10F3D0000196883C9105C1F78091C00087FFEFCF6F
:10F3E00018B8C3C08FEF8AB90DC08BB180958BB9A7
:10F3F00080E090E0E0EDF7E03197F1F70196883C8E
:10F400009105C1F78091C00087FFEFCF1BB8ADC059
:10F410008FEF8DB90DC08EB180958EB980E090E0F0
:10F42000E0EDF7E03197F1F70196883C9105C1F7DF
:10F430008091C00087FFEFCF1EB897C08FEF80BBD1
:10F440000DC081B3809581BB80E090E0E0EDF7E0F6
:10F450003197F1F70196883C9105C1F78091C00082
:10F4600087FFEFCF11BA81C08FEF83BB0DC084B38C
:10F47000809584BB80E090E0E0EDF7E03197F1F714
:10F480000196883C9105C1F78091C00087FFEFCFBE
:10F4900014BA6BC08FEF809301010FC080910201FD
:10F4A00080958093020180E090E0E0EDF7E03197F5
:10F4B000F1F70196883C9105C1F78091C00087FF64
:10F4C000EDCF1092020151C08FEF809304010FC065
:10F4D0008091050180958093050180E090E0E0ED4A
:10F4E000F7E03197F1F70196883C9105C1F78091DB
:10F4F000C00087FFEDCF1092050137C08FEF8093DA
:10F5000007010FC08091080180958093080180E079
:10F5100090E0E0EDF7E03197F1F70196883C910536
:10F52000C1F78091C00087FFEDCF109208011DC088
:10F530008FEF80930A010FC080910B01809580931B
:10F540000B0180E090E0E0EDF7E03197F1F70196F4
:10F55000883C9105C1F78091C00087FFEDCF1092E4
:10F560000B0103C085E292EEEEC98091C00087FFD7
:10F57000FCCF8091C600EAC988E392EEE4C98CE131
:10F5800091EEE1C988249924933011F1943028F444
:10F59000913089F09230B8F408C0953061F195301F
:10F5A000F0F0963009F048C043C02B3109F042C951
:10F5B00091E06BE13FC96227C15DDE4F2883CF52E6
:10F5C000D14092E037C9B22FA0E0622793E032C960
:10F5D000822F90E0A82BB92B622794E02BC92E3004
:10F5E00009F039C3622795E0C05DDE4F19821882A9
:10F5F000C053D1401FC9E1E0F0E0EC0FFD1FC05D3A
:10F60000DE4F08811981C053D140E00FF11F2083E4
:10F610000F5F1F4FC05DDE4F19830883C053D14079
:10F6200062270A171B0709F005C9D80196E002C92D
:10F63000261709F010C303C0973009F0FBC87724E0
:10F640009981933109F412C19431C8F4963009F4C8
:10F65000D8C0973050F4923009F406C1933009F4C1
:10F660006DC0913009F059C253C0913109F477C08F
:10F67000923108F0BBC0903109F04FC2F5C098310B
:10F6800009F487C0993150F4953109F4EFC09531F0
:10F6900008F4C6C1963109F040C2C2C19A3109F4DA
:10F6A0006CC09A3108F491C09B3109F45BC09D3164
:10F6B00009F033C29D81903359F48F81882311F46E
:10F6C0009EE11CC0813011F091E018C098E916C08D
:10F6D000892F807591F0903539F4E0E0F0E089E011
:10F6E0008093570094910AC0983539F4E3E0F0E034
:10F6F00089E080935700949101C090E01A821B82A8
:10F700008D818C831D829E831F8227E030E009C299
:10F710001A8288E08B8381E48C8386E58D8382E581
:10F720008E8389E48F8383E5888780E589878FE5E9
:10F730008A8782E38B872BE030E0F3C18A818139AD
:10F7400041F0823941F0803911F48FE005C080E04A
:10F7500003C082E001C08AE01A828B8344C0772410
:10F76000739482C08D81882311F48EE12CC0813086
:10F7700011F081E028C088E926C01A82E1E0F0E0BB
:10F7800089E08093570084918B831C8224E030E0D1
:10F79000C8C18B81803589F48C81883039F4E2E0EE
:10F7A000F0E089E08093570084910DC0E0E0F0E044
:10F7B00089E080935700849106C0E3E0F0E089E09F
:10F7C0008093570084911A82DFCF8D81836C99E0FA
:10F7D000E1E0F0E0082E90935700E89507B600FCB2
:10F7E000FDCF1A821B8223E030E09BC180EC8A832C
:10F7F000CE5CDE4F188219821A821B82C253D1401E
:10F800008EC18A8190E0A0E0B0E0582F44273327D2
:10F8100022278B8190E0A0E0B0E0DC0199278827C7
:10F82000282B392B4A2B5B2B8D8190E0A0E0B0E098
:10F83000282B392B4A2B5B2B8C8190E0A0E0B0E089
:10F84000BA2FA92F982F8827282B392B4A2B5B2BCF
:10F85000220F331F441F551FC05EDE4F288339839C
:10F860004A835B83C052D1401A8259C13A81C95C34
:10F87000DE4F3883C753D140CA5CDE4F1882C6536F
:10F88000D1408B81C82EDD24CA5CDE4F488159816E
:10F89000C653D140C42AD52A933109F082C0CE5C28
:10F8A000DE4F88819981AA81BB81C253D1408050AB
:10F8B000904CA340B04030F583E0CE5CDE4FE88052
:10F8C000F9800A811B81C253D140F70100935B008C
:10F8D00080935700E89507B600FCFDCFCE5CDE4F65
:10F8E000088119812A813B81C253D14000501F4FAA
:10F8F0002F4F3F4FCE5CDE4F088319832A833B8313
:10F90000C253D140C05EDE4F488159816A817B81FC
:10F91000C052D140DE011B9631E08C9111962C91A2
:10F9200011971296C75CDE4F2883C953D140C85C3B
:10F93000DE4F1882C853D14090E0C85CDE4FE881AA
:10F94000F981C853D1408E2B9F2B0C01FA01609393
:10F950005B0030935700E89511244E5F5F4F6F4F67
:10F960007F4F0EEFE02E0FEFF02ECE0CDF1CC114F8
:10F97000D10499F685E0C05EDE4F088119812A81A5
:10F980003B81C052D140F80120935B008093570027
:10F99000E89507B600FCFDCF81E180935700E8951C
:10F9A00035C0C05EDE4F88819981AA81BB81C0527B
:10F9B000D140B695A795979587957C018601ABE0D8
:10F9C000AA2EB12CAC0EBD1E0BC0D5016D915D01F0
:10F9D000C7010F947FFE0894E11CF11C01501040F8
:10F9E0000115110591F7A60160E070E0440F551F65
:10F9F000661F771FC05EDE4FE880F9800A811B8199
:10FA0000C052D1404E0D5F1D601F711F1A82C05E33
:10FA1000DE4F488359836A837B83C052D1407FC0C5
:10FA2000FA80C55CDE4FF882CB53D140C65CDE4F16
:10FA30001882CA53D1408B81C82EDD24C65CDE4FAC
:10FA400008811981CA53D140C02AD12A1A828981DA
:10FA5000BE016D5F7F4F843121F59601C05EDE4FA0
:10FA6000E880F9800A811B81C052D1400BBFF701A9
:10FA700087919691DB018C9311969C936E5F7F4FDB
:10FA8000D801C7010296A11DB11DC05EDE4F88835B
:10FA90009983AA83BB83C052D14022503040F1F6F3
:10FAA00036C0C05EDE4F288139814A815B81C052F9
:10FAB000D1400894C108D108760100E010E0089414
:10FAC000C11CD11C0894E11CF11C011D111DE20E8A
:10FAD000F31E041F151F21BDBB27A52F942F832FB5
:10FAE00082BD2F5F3F4F4F4F5F4FF89A80B5DB01CC
:10FAF0008D93BD012E153F054007510761F7C05E8C
:10FB0000DE4F288339834A835B83C052D1409601FC
:10FB10002D5F3F4FFB01108204C080EC8A8322E0FE
:10FB200030E08BE18093C6008091C00086FFFCCF5F
:10FB30008091C00080648093C000C15DDE4FF88179
:10FB4000CF52D140F093C6008091C00086FFFCCF19
:10FB50008091C00080648093C000432F3093C60022
:10FB60008091C00086FFFCCF8091C00080648093AC
:10FB7000C000922F2093C6008091C00086FFFCCF6A
:10FB80008091C00080648093C0008EE08093C600A6
:10FB90008091C00086FFFCCF8091C000806480937C
:10FBA000C00065E1C15DDE4FE880CF52D1406E25D7
:10FBB00069276427FE01319610C090819093C6009A
:10FBC0008091C00086FFFCCF31968091C000806498
:10FBD0008093C0006927215030402115310569F715
:10FBE0006093C6008091C00086FFFCCF8091C0006A
:10FBF00080648093C00085B1805885B9772081F4F6
:10FC0000C15DDE4F0881CF52D1400F5FC15DDE4F35
:10FC10000883CF52D14090E0A0E0B0E00D941AF4F8
:10FC200027982F9880E090E020ED37E0F901319798
:10FC3000F1F7019684369105C9F700008091C00064
:10FC40008D7F8093C00081E180935700E895EE2777
:10FC5000FF270994FFCF90E00D941AF497FB092E2B
:10FC600007260AD077FD04D02ED006D000201AF443
:10FC7000709561957F4F0895F6F7909581959F4F08
:10FC80000895A1E21A2EAA1BBB1BFD010DC0AA1FDD
:10FC9000BB1FEE1FFF1FA217B307E407F50720F0F5
:10FCA000A21BB30BE40BF50B661F771F881F991F70
:10FCB0001A9469F760957095809590959B01AC01B9
:10FCC000BD01CF010895AA1BBB1B51E107C0AA1FAC
:10FCD000BB1FA617B70710F0A61BB70B881F991FED
:10FCE0005A95A9F780959095BC01CD010895F99991
:10FCF000FECF92BD81BDF89A992780B50895262F31
:10FD0000F999FECF1FBA92BD81BD20BD0FB6F89400
:0EFD1000FA9AF99A0FBE01960895F894FFCF63
:00000001FF
